{"abi":[{"type":"constructor","inputs":[],"stateMutability":"nonpayable"},{"type":"receive","stateMutability":"payable"},{"type":"function","name":"_maxTxAmount","inputs":[],"outputs":[{"name":"","type":"uint256","internalType":"uint256"}],"stateMutability":"view"},{"type":"function","name":"_maxWalletSize","inputs":[],"outputs":[{"name":"","type":"uint256","internalType":"uint256"}],"stateMutability":"view"},{"type":"function","name":"_rOwned","inputs":[{"name":"","type":"address","internalType":"address"}],"outputs":[{"name":"","type":"uint256","internalType":"uint256"}],"stateMutability":"view"},{"type":"function","name":"_totalProportion","inputs":[],"outputs":[{"name":"","type":"uint256","internalType":"uint256"}],"stateMutability":"view"},{"type":"function","name":"allowance","inputs":[{"name":"holder","type":"address","internalType":"address"},{"name":"spender","type":"address","internalType":"address"}],"outputs":[{"name":"","type":"uint256","internalType":"uint256"}],"stateMutability":"view"},{"type":"function","name":"approve","inputs":[{"name":"spender","type":"address","internalType":"address"},{"name":"amount","type":"uint256","internalType":"uint256"}],"outputs":[{"name":"","type":"bool","internalType":"bool"}],"stateMutability":"nonpayable"},{"type":"function","name":"approveMax","inputs":[{"name":"spender","type":"address","internalType":"address"}],"outputs":[{"name":"","type":"bool","internalType":"bool"}],"stateMutability":"nonpayable"},{"type":"function","name":"balanceOf","inputs":[{"name":"account","type":"address","internalType":"address"}],"outputs":[{"name":"","type":"uint256","internalType":"uint256"}],"stateMutability":"view"},{"type":"function","name":"changeFees","inputs":[{"name":"_liquidityFeeBuy","type":"uint256","internalType":"uint256"},{"name":"_reflectionFeeBuy","type":"uint256","internalType":"uint256"},{"name":"_marketingFeeBuy","type":"uint256","internalType":"uint256"},{"name":"_teamFeeBuy","type":"uint256","internalType":"uint256"},{"name":"_devFeeBuy","type":"uint256","internalType":"uint256"},{"name":"_feeDenominator","type":"uint256","internalType":"uint256"},{"name":"_liquidityFeeSell","type":"uint256","internalType":"uint256"},{"name":"_reflectionFeeSell","type":"uint256","internalType":"uint256"},{"name":"_marketingFeeSell","type":"uint256","internalType":"uint256"},{"name":"_teamFeeSell","type":"uint256","internalType":"uint256"},{"name":"_devFeeSell","type":"uint256","internalType":"uint256"}],"outputs":[],"stateMutability":"nonpayable"},{"type":"function","name":"changeName","inputs":[{"name":"newName","type":"string","internalType":"string"}],"outputs":[],"stateMutability":"nonpayable"},{"type":"function","name":"changeSymbol","inputs":[{"name":"newSymbol","type":"string","internalType":"string"}],"outputs":[],"stateMutability":"nonpayable"},{"type":"function","name":"claimingFees","inputs":[],"outputs":[{"name":"","type":"bool","internalType":"bool"}],"stateMutability":"view"},{"type":"function","name":"clearForeignToken","inputs":[{"name":"tokenAddress","type":"address","internalType":"address"},{"name":"tokens","type":"uint256","internalType":"uint256"}],"outputs":[{"name":"","type":"bool","internalType":"bool"}],"stateMutability":"nonpayable"},{"type":"function","name":"clearStuckBalance","inputs":[],"outputs":[],"stateMutability":"nonpayable"},{"type":"function","name":"decimals","inputs":[],"outputs":[{"name":"","type":"uint8","internalType":"uint8"}],"stateMutability":"pure"},{"type":"function","name":"enableTrading","inputs":[],"outputs":[],"stateMutability":"nonpayable"},{"type":"function","name":"getCirculatingSupply","inputs":[],"outputs":[{"name":"","type":"uint256","internalType":"uint256"}],"stateMutability":"view"},{"type":"function","name":"getLiquidityBacking","inputs":[{"name":"accuracy","type":"uint256","internalType":"uint256"}],"outputs":[{"name":"","type":"uint256","internalType":"uint256"}],"stateMutability":"view"},{"type":"function","name":"getOwner","inputs":[],"outputs":[{"name":"","type":"address","internalType":"address"}],"stateMutability":"view"},{"type":"function","name":"getTotalFeeBuy","inputs":[{"name":"","type":"bool","internalType":"bool"}],"outputs":[{"name":"","type":"uint256","internalType":"uint256"}],"stateMutability":"view"},{"type":"function","name":"getTotalFeeSell","inputs":[{"name":"","type":"bool","internalType":"bool"}],"outputs":[{"name":"","type":"uint256","internalType":"uint256"}],"stateMutability":"view"},{"type":"function","name":"isOverLiquified","inputs":[{"name":"target","type":"uint256","internalType":"uint256"},{"name":"accuracy","type":"uint256","internalType":"uint256"}],"outputs":[{"name":"","type":"bool","internalType":"bool"}],"stateMutability":"view"},{"type":"function","name":"multiAirdrop","inputs":[{"name":"from","type":"address","internalType":"address"},{"name":"addresses","type":"address[]","internalType":"address[]"},{"name":"tokens","type":"uint256[]","internalType":"uint256[]"}],"outputs":[],"stateMutability":"nonpayable"},{"type":"function","name":"name","inputs":[],"outputs":[{"name":"","type":"string","internalType":"string"}],"stateMutability":"view"},{"type":"function","name":"owner","inputs":[],"outputs":[{"name":"","type":"address","internalType":"address"}],"stateMutability":"view"},{"type":"function","name":"pair","inputs":[],"outputs":[{"name":"","type":"address","internalType":"address"}],"stateMutability":"view"},{"type":"function","name":"renounceOwnership","inputs":[],"outputs":[],"stateMutability":"nonpayable"},{"type":"function","name":"router","inputs":[],"outputs":[{"name":"","type":"address","internalType":"contract IDEXRouter"}],"stateMutability":"view"},{"type":"function","name":"setFeeReceivers","inputs":[{"name":"_marketingFeeReceiver","type":"address","internalType":"address"},{"name":"_devFeeReceiver","type":"address","internalType":"address"},{"name":"_liquidityReceiver","type":"address","internalType":"address"},{"name":"_teamFeeReceiver","type":"address","internalType":"address"}],"outputs":[],"stateMutability":"nonpayable"},{"type":"function","name":"setIsFeeExempt","inputs":[{"name":"holder","type":"address","internalType":"address"},{"name":"exempt","type":"bool","internalType":"bool"}],"outputs":[],"stateMutability":"nonpayable"},{"type":"function","name":"setIsTxLimitExempt","inputs":[{"name":"holder","type":"address","internalType":"address"},{"name":"exempt","type":"bool","internalType":"bool"}],"outputs":[],"stateMutability":"nonpayable"},{"type":"function","name":"setMaxTxPercent_base1000","inputs":[{"name":"maxTXPercentage_base1000","type":"uint256","internalType":"uint256"}],"outputs":[],"stateMutability":"nonpayable"},{"type":"function","name":"setMaxWalletPercent_base1000","inputs":[{"name":"maxWallPercent_base1000","type":"uint256","internalType":"uint256"}],"outputs":[],"stateMutability":"nonpayable"},{"type":"function","name":"setSwapBackSettings","inputs":[{"name":"_enabled","type":"bool","internalType":"bool"},{"name":"_amountS","type":"uint256","internalType":"uint256"},{"name":"_amountL","type":"uint256","internalType":"uint256"},{"name":"_alternate","type":"bool","internalType":"bool"}],"outputs":[],"stateMutability":"nonpayable"},{"type":"function","name":"swapThreshold","inputs":[],"outputs":[{"name":"","type":"uint256","internalType":"uint256"}],"stateMutability":"view"},{"type":"function","name":"symbol","inputs":[],"outputs":[{"name":"","type":"string","internalType":"string"}],"stateMutability":"view"},{"type":"function","name":"tokenFromReflection","inputs":[{"name":"proportion","type":"uint256","internalType":"uint256"}],"outputs":[{"name":"","type":"uint256","internalType":"uint256"}],"stateMutability":"view"},{"type":"function","name":"tokensToProportion","inputs":[{"name":"tokens","type":"uint256","internalType":"uint256"}],"outputs":[{"name":"","type":"uint256","internalType":"uint256"}],"stateMutability":"view"},{"type":"function","name":"totalSupply","inputs":[],"outputs":[{"name":"","type":"uint256","internalType":"uint256"}],"stateMutability":"view"},{"type":"function","name":"tradingOpen","inputs":[],"outputs":[{"name":"","type":"bool","internalType":"bool"}],"stateMutability":"view"},{"type":"function","name":"transfer","inputs":[{"name":"recipient","type":"address","internalType":"address"},{"name":"amount","type":"uint256","internalType":"uint256"}],"outputs":[{"name":"","type":"bool","internalType":"bool"}],"stateMutability":"nonpayable"},{"type":"function","name":"transferFrom","inputs":[{"name":"sender","type":"address","internalType":"address"},{"name":"recipient","type":"address","internalType":"address"},{"name":"amount","type":"uint256","internalType":"uint256"}],"outputs":[{"name":"","type":"bool","internalType":"bool"}],"stateMutability":"nonpayable"},{"type":"function","name":"transferOwnership","inputs":[{"name":"newOwner","type":"address","internalType":"address"}],"outputs":[],"stateMutability":"nonpayable"},{"type":"function","name":"viewFeesBuy","inputs":[],"outputs":[{"name":"","type":"uint256","internalType":"uint256"},{"name":"","type":"uint256","internalType":"uint256"},{"name":"","type":"uint256","internalType":"uint256"},{"name":"","type":"uint256","internalType":"uint256"},{"name":"","type":"uint256","internalType":"uint256"},{"name":"","type":"uint256","internalType":"uint256"},{"name":"","type":"uint256","internalType":"uint256"}],"stateMutability":"view"},{"type":"function","name":"viewFeesSell","inputs":[],"outputs":[{"name":"","type":"uint256","internalType":"uint256"},{"name":"","type":"uint256","internalType":"uint256"},{"name":"","type":"uint256","internalType":"uint256"},{"name":"","type":"uint256","internalType":"uint256"},{"name":"","type":"uint256","internalType":"uint256"},{"name":"","type":"uint256","internalType":"uint256"},{"name":"","type":"uint256","internalType":"uint256"}],"stateMutability":"view"},{"type":"event","name":"Approval","inputs":[{"name":"owner","type":"address","indexed":true,"internalType":"address"},{"name":"spender","type":"address","indexed":true,"internalType":"address"},{"name":"value","type":"uint256","indexed":false,"internalType":"uint256"}],"anonymous":false},{"type":"event","name":"AutoLiquify","inputs":[{"name":"amountBNB","type":"uint256","indexed":false,"internalType":"uint256"},{"name":"amountToken","type":"uint256","indexed":false,"internalType":"uint256"}],"anonymous":false},{"type":"event","name":"OwnershipTransferred","inputs":[{"name":"previousOwner","type":"address","indexed":true,"internalType":"address"},{"name":"newOwner","type":"address","indexed":true,"internalType":"address"}],"anonymous":false},{"type":"event","name":"Reflect","inputs":[{"name":"amountReflected","type":"uint256","indexed":false,"internalType":"uint256"},{"name":"newTotalProportion","type":"uint256","indexed":false,"internalType":"uint256"}],"anonymous":false},{"type":"event","name":"Transfer","inputs":[{"name":"from","type":"address","indexed":true,"internalType":"address"},{"name":"to","type":"address","indexed":true,"internalType":"address"},{"name":"value","type":"uint256","indexed":false,"internalType":"uint256"}],"anonymous":false}],"bytecode":{"object":"0x60c0604052600a60809081526950657069746f20496e7560b01b60a0526001906200002b90826200051f565b5060408051808201909152600280825261504960f01b6020830152906200005390826200051f565b50620000626009600a62000700565b6200007290633b9aca0062000718565b6003818155606491620000859162000718565b62000091919062000732565b60045560646003546003620000a7919062000718565b620000b3919062000732565b6005556003546007556001600b556004600c556000600d556005600e556000600f55600560105560056011556005601255600060135560006014556064601555600f54600d54600c54600b54600e546200010e919062000755565b6200011a919062000755565b62000126919062000755565b62000132919062000755565b60165560145460125460115460105460135462000150919062000755565b6200015c919062000755565b62000168919062000755565b62000174919062000755565b6017556014601c8190556064601d55601f805462ffffff60a01b191661010160a81b1790556003546103e891620001ac919062000718565b620001b8919062000732565b6020556103e8600354601e620001cf919062000718565b620001db919062000732565b602155602054602255348015620001f157600080fd5b50600080546001600160a01b031916339081178255604051909182917f8be0079c531659141344cd1fd0a4f28419497f9722a3daafe3b4186f6b6457e0908290a350601e80546001600160a01b0319167310ed43c718714eb63d5aa57b78b54704e256024e9081179091556040805163c45a015560e01b8152905163c45a0155916004808201926020929091908290030181865afa15801562000298573d6000803e3d6000fd5b505050506040513d601f19601f82011682018060405250810190620002be91906200076b565b6040516364e329cb60e11b815273bb4cdb9cbd36b01bd1cbaebf2de08d9173bc095c60048201523060248201526001600160a01b03919091169063c9c65396906044016020604051808303816000875af115801562000321573d6000803e3d6000fd5b505050506040513d601f19601f820116820180604052508101906200034791906200076b565b601f80546001600160a01b03199081166001600160a01b03938416178255306000818152600860209081526040808320601e805489168552908352818420600019908190553380865283862091909155948452600a8352818420805460ff1990811660019081179092559154891685528285208054831682179055965490971683528083208054881687179055838352808320805488168717905560098252808320805490971690951790955560188054841683179055601a8054841683179055601b80547340e6a83313065b058b0aff6e8388231fbc953d05908516811790915560198054909416179092556003546006855283832081905592519283529290917fddf252ad1be2c89b69c2b068fc378daa952ba7f163c4a11628f55a4df523b3ef910160405180910390a362000796565b634e487b7160e01b600052604160045260246000fd5b600181811c90821680620004a557607f821691505b602082108103620004c657634e487b7160e01b600052602260045260246000fd5b50919050565b601f8211156200051a57600081815260208120601f850160051c81016020861015620004f55750805b601f850160051c820191505b81811015620005165782815560010162000501565b5050505b505050565b81516001600160401b038111156200053b576200053b6200047a565b62000553816200054c845462000490565b84620004cc565b602080601f8311600181146200058b5760008415620005725750858301515b600019600386901b1c1916600185901b17855562000516565b600085815260208120601f198616915b82811015620005bc578886015182559484019460019091019084016200059b565b5085821015620005db5787850151600019600388901b60f8161c191681555b5050505050600190811b01905550565b634e487b7160e01b600052601160045260246000fd5b600181815b8085111562000642578160001904821115620006265762000626620005eb565b808516156200063457918102915b93841c939080029062000606565b509250929050565b6000826200065b57506001620006fa565b816200066a57506000620006fa565b81600181146200068357600281146200068e57620006ae565b6001915050620006fa565b60ff841115620006a257620006a2620005eb565b50506001821b620006fa565b5060208310610133831016604e8410600b8410161715620006d3575081810a620006fa565b620006df838362000601565b8060001904821115620006f657620006f6620005eb565b0290505b92915050565b60006200071160ff8416836200064a565b9392505050565b8082028115828204841417620006fa57620006fa620005eb565b6000826200075057634e487b7160e01b600052601260045260246000fd5b500490565b80820180821115620006fa57620006fa620005eb565b6000602082840312156200077e57600080fd5b81516001600160a01b03811681146200071157600080fd5b6128a080620007a66000396000f3fe6080604052600436106102765760003560e01c8063715018a61161014f578063a9059cbb116100c1578063dd62ed3e1161007a578063dd62ed3e1461077c578063f0a9e365146107c2578063f2fde38b146107e2578063f84ba65d14610802578063f887ea4014610822578063ffb54a991461084257600080fd5b8063a9059cbb146106b4578063b0f7ec38146106d4578063b78e7edb146106f5578063b93bdb5f14610715578063bd9ab5371461073c578063d51ed1c81461075c57600080fd5b80638a8c523c116101135780638a8c523c146106165780638da5cb5b1461062b5780638f9a55c01461064957806395d89b411461065f578063a3895fff14610674578063a8aa1b311461069457600080fd5b8063715018a6146105775780637d1db4a51461058c578063832790fe146105a2578063878a9a61146105c4578063893d20e8146105e457600080fd5b80632d838119116101e85780635353a2d8116101ac5780635353a2d81461047f578063571ac8b01461049f578063613f930f146104bf5780636308fb9814610517578063658d4b7f1461053757806370a082311461055757600080fd5b80632d838119146103ee578063313ce5671461040e578063364333f41461042a5780633c8e556d1461043f57806345ce53651461045f57600080fd5b80631161ae391161023a5780631161ae391461034c578063178002871461036c57806318160ddd1461038257806323b872dd146103975780632b112e49146103b75780632d44c931146103cc57600080fd5b80630445b6671461028257806306fdde03146102ab57806309302dc6146102cd578063095ea7b3146102ef5780630cfc15f91461031f57600080fd5b3661027d57005b600080fd5b34801561028e57600080fd5b5061029860225481565b6040519081526020015b60405180910390f35b3480156102b757600080fd5b506102c0610863565b6040516102a29190612114565b3480156102d957600080fd5b506102ed6102e8366004612162565b6108f5565b005b3480156102fb57600080fd5b5061030f61030a366004612197565b6109a8565b60405190151581526020016102a2565b34801561032b57600080fd5b5061029861033a3660046121c1565b60066020526000908152604090205481565b34801561035857600080fd5b5061030f6103673660046121dc565b610a15565b34801561037857600080fd5b5061029860075481565b34801561038e57600080fd5b50600354610298565b3480156103a357600080fd5b5061030f6103b23660046121fe565b610a29565b3480156103c357600080fd5b50610298610aeb565b3480156103d857600080fd5b506102986103e7366004612248565b5060175490565b3480156103fa57600080fd5b50610298610409366004612162565b610b1c565b34801561041a57600080fd5b50604051600981526020016102a2565b34801561043657600080fd5b506102ed610b3f565b34801561044b57600080fd5b506102ed61045a366004612265565b610bc6565b34801561046b57600080fd5b5061029861047a366004612162565b610c3f565b34801561048b57600080fd5b506102ed61049a3660046122cf565b610c5c565b3480156104ab57600080fd5b5061030f6104ba3660046121c1565b610c96565b3480156104cb57600080fd5b50600b54600e54600c54601254600f546016546015545b604080519788526020880196909652948601939093526060850191909152608084015260a083015260c082015260e0016102a2565b34801561052357600080fd5b506102ed610532366004612380565b610ca4565b34801561054357600080fd5b506102ed6105523660046123ca565b610d10565b34801561056357600080fd5b506102986105723660046121c1565b610d65565b34801561058357600080fd5b506102ed610d87565b34801561059857600080fd5b5061029860045481565b3480156105ae57600080fd5b506102986105bd366004612248565b5060165490565b3480156105d057600080fd5b506102ed6105df366004612401565b610dfb565b3480156105f057600080fd5b506000546001600160a01b03165b6040516001600160a01b0390911681526020016102a2565b34801561062257600080fd5b506102ed610f60565b34801561063757600080fd5b506000546001600160a01b03166105fe565b34801561065557600080fd5b5061029860055481565b34801561066b57600080fd5b506102c0610f9f565b34801561068057600080fd5b506102ed61068f3660046122cf565b610fae565b3480156106a057600080fd5b50601f546105fe906001600160a01b031681565b3480156106c057600080fd5b5061030f6106cf366004612197565b610fe4565b3480156106e057600080fd5b50601f5461030f90600160a81b900460ff1681565b34801561070157600080fd5b506102ed6107103660046124bf565b610ff1565b34801561072157600080fd5b506010546013546011546012546014546017546015546104e2565b34801561074857600080fd5b506102ed610757366004612162565b6111ef565b34801561076857600080fd5b50610298610777366004612162565b6112a5565b34801561078857600080fd5b50610298610797366004612540565b6001600160a01b03918216600090815260086020908152604080832093909416825291909152205490565b3480156107ce57600080fd5b5061030f6107dd366004612197565b6112df565b3480156107ee57600080fd5b506102ed6107fd3660046121c1565b6113df565b34801561080e57600080fd5b506102ed61081d3660046123ca565b6114c9565b34801561082e57600080fd5b50601e546105fe906001600160a01b031681565b34801561084e57600080fd5b50601f5461030f90600160a01b900460ff1681565b60606001805461087290612573565b80601f016020809104026020016040519081016040528092919081815260200182805461089e90612573565b80156108eb5780601f106108c0576101008083540402835291602001916108eb565b820191906000526020600020905b8154815290600101906020018083116108ce57829003601f168201915b5050505050905090565b6000546001600160a01b031633146109285760405162461bcd60e51b815260040161091f906125ad565b60405180910390fd5b6103e860035461093891906125f8565b8110156109875760405162461bcd60e51b815260206004820152601f60248201527f63616e6e6f7420736574206d61782077616c6c65742062656c6f77202e312500604482015260640161091f565b6103e881600354610998919061261a565b6109a291906125f8565b60055550565b3360008181526008602090815260408083206001600160a01b038716808552925280832085905551919290917f8c5be1e5ebec7d5bd14f71427d1e84f3dd0314c0f7b2291e5b200ac8c7c3b92590610a039086815260200190565b60405180910390a35060015b92915050565b600082610a21836112a5565b119392505050565b6001600160a01b038316600090815260086020908152604080832033845290915281205460001914610ad6576040805180820182526016815275496e73756666696369656e7420416c6c6f77616e636560501b6020808301919091526001600160a01b0387166000908152600882528381203382529091529190912054610ab191849061151e565b6001600160a01b03851660009081526008602090815260408083203384529091529020555b610ae1848484611558565b90505b9392505050565b6000610b17610afa6000610d65565b610b11610b0861dead610d65565b60035490611857565b90611857565b905090565b6000610a0f600754610b396003548561189990919063ffffffff16565b9061191b565b6000546001600160a01b03163314610b695760405162461bcd60e51b815260040161091f906125ad565b604051600090339061753090479084818181858888f193505050503d8060008114610bb0576040519150601f19603f3d011682016040523d82523d6000602084013e610bb5565b606091505b5050905080610bc357600080fd5b50565b6000546001600160a01b03163314610bf05760405162461bcd60e51b815260040161091f906125ad565b601980546001600160a01b03199081166001600160a01b0396871617909155601a805482169286169290921790915560188054821692851692909217909155601b805490911691909216179055565b6000610a0f600354610b396007548561189990919063ffffffff16565b6000546001600160a01b03163314610c865760405162461bcd60e51b815260040161091f906125ad565b6001610c928282612680565b5050565b6000610a0f826000196109a8565b6000546001600160a01b03163314610cce5760405162461bcd60e51b815260040161091f906125ad565b601f8054941515600160a81b0260ff60a81b19921515600160b01b029290921661ffff60a81b1990951694909417179092556020819055602191909155602255565b6000546001600160a01b03163314610d3a5760405162461bcd60e51b815260040161091f906125ad565b6001600160a01b03919091166000908152600960205260409020805460ff1916911515919091179055565b6001600160a01b038116600090815260066020526040812054610a0f90610b1c565b6000546001600160a01b03163314610db15760405162461bcd60e51b815260040161091f906125ad565b600080546040516001600160a01b03909116907f8be0079c531659141344cd1fd0a4f28419497f9722a3daafe3b4186f6b6457e0908390a3600080546001600160a01b0319169055565b6000546001600160a01b03163314610e255760405162461bcd60e51b815260040161091f906125ad565b8a600b8190555089600f8190555088600e8190555087600c8190555086600d81905550610e77600d54610e71600c54610e71600e54610e71600f54600b5461195d90919063ffffffff16565b9061195d565b60165560108590556014849055601383905560118290556012819055610ea581610e71848187818b8b61195d565b601755601586905560165460191015610f005760405162461bcd60e51b815260206004820152601d60248201527f43616e6e6f74207365742062757920666565732061626f766520323525000000604482015260640161091f565b60196017541115610f535760405162461bcd60e51b815260206004820152601e60248201527f43616e6e6f74207365742073656c6c20666565732061626f7665203235250000604482015260640161091f565b5050505050505050505050565b6000546001600160a01b03163314610f8a5760405162461bcd60e51b815260040161091f906125ad565b601f805460ff60a01b1916600160a01b179055565b60606002805461087290612573565b6000546001600160a01b03163314610fd85760405162461bcd60e51b815260040161091f906125ad565b6002610c928282612680565b6000610ae4338484611558565b6000546001600160a01b0316331461101b5760405162461bcd60e51b815260040161091f906125ad565b6101f583106110825760405162461bcd60e51b815260206004820152602d60248201527f474153204572726f723a206d61782061697264726f70206c696d69742069732060448201526c3530302061646472657373657360981b606482015260840161091f565b8281146110e25760405162461bcd60e51b815260206004820152602860248201527f4d69736d61746368206265747765656e204164647265737320616e6420746f6b604482015267195b8818dbdd5b9d60c21b606482015260840161091f565b6000805b848110156111265783838281811061110057611100612740565b90506020020135826111129190612756565b91508061111e81612769565b9150506110e6565b508061113187610d65565b101561117f5760405162461bcd60e51b815260206004820152601b60248201527f4e6f7420656e6f75676820746f6b656e7320696e2077616c6c65740000000000604482015260640161091f565b60005b848110156111e6576111d3878787848181106111a0576111a0612740565b90506020020160208101906111b591906121c1565b8686858181106111c7576111c7612740565b905060200201356119bc565b50806111de81612769565b915050611182565b50505050505050565b6000546001600160a01b031633146112195760405162461bcd60e51b815260040161091f906125ad565b6112356103e8610b39600260035461189990919063ffffffff16565b8110156112845760405162461bcd60e51b815260206004820152601b60248201527f63616e6e6f7420736574206d61782054582062656c6f77202e32250000000000604482015260640161091f565b6103e881600354611295919061261a565b61129f91906125f8565b60045550565b6000610a0f6112b2610aeb565b601f54610b39906112d8906002906112d2906001600160a01b0316610d65565b90611899565b8590611899565b336000908152600a602052604081205460ff166112fb57600080fd5b8160000361136e576040516370a0823160e01b81523060048201526001600160a01b038416906370a0823190602401602060405180830381865afa158015611347573d6000803e3d6000fd5b505050506040513d601f19601f8201168201806040525081019061136b9190612782565b91505b60405163a9059cbb60e01b8152336004820152602481018390526001600160a01b0384169063a9059cbb906044016020604051808303816000875af11580156113bb573d6000803e3d6000fd5b505050506040513d601f19601f82011682018060405250810190610ae4919061279b565b6000546001600160a01b031633146114095760405162461bcd60e51b815260040161091f906125ad565b6001600160a01b03811661146e5760405162461bcd60e51b815260206004820152602660248201527f4f776e61626c653a206e6577206f776e657220697320746865207a65726f206160448201526564647265737360d01b606482015260840161091f565b600080546040516001600160a01b03808516939216917f8be0079c531659141344cd1fd0a4f28419497f9722a3daafe3b4186f6b6457e091a3600080546001600160a01b0319166001600160a01b0392909216919091179055565b6000546001600160a01b031633146114f35760405162461bcd60e51b815260040161091f906125ad565b6001600160a01b03919091166000908152600a60205260409020805460ff1916911515919091179055565b600081848411156115425760405162461bcd60e51b815260040161091f9190612114565b50600061154f84866127b8565b95945050505050565b60235460009060ff1615611578576115718484846119bc565b9050610ae4565b601f546001600160a01b038481169116148015906115a157506001600160a01b03831661dead14155b80156115bb57506019546001600160a01b03848116911614155b80156115e057506001600160a01b0383166000908152600a602052604090205460ff16155b1561164057600554826115f285610d65565b6115fc9190612756565b11156116405760405162461bcd60e51b815260206004820152601360248201527213585e0815d85b1b195d08115e18d959591959606a1b604482015260640161091f565b601f546001600160a01b0384811691161480159061166957506001600160a01b03831661dead14155b801561168e57506001600160a01b0383166000908152600a602052604090205460ff16155b156116e357601f54600160a01b900460ff166116e35760405162461bcd60e51b8152602060048201526014602482015273151c98591a5b99c81b9bdd081bdc195b881e595d60621b604482015260640161091f565b6116eb611ac6565b156116f8576116f8611b16565b600061170383610c3f565b905061176b8160405180604001604052806014815260200173496e73756666696369656e742042616c616e636560601b81525060066000896001600160a01b03166001600160a01b031681526020019081526020016000205461151e9092919063ffffffff16565b6001600160a01b038616600090815260066020908152604080832093909355600990529081205460ff16156117a057816117cb565b601f546117cb906001600160a01b038881169116146117c05760006117c3565b60015b878785611f79565b6001600160a01b0386166000908152600660205260409020549091506117f1908261195d565b6001600160a01b0380871660008181526006602052604090209290925587167fddf252ad1be2c89b69c2b068fc378daa952ba7f163c4a11628f55a4df523b3ef61183a84610b1c565b60405190815260200160405180910390a350600195945050505050565b6000610ae483836040518060400160405280601e81526020017f536166654d6174683a207375627472616374696f6e206f766572666c6f77000081525061151e565b6000826000036118ab57506000610a0f565b60006118b7838561261a565b9050826118c485836125f8565b14610ae45760405162461bcd60e51b815260206004820152602160248201527f536166654d6174683a206d756c7469706c69636174696f6e206f766572666c6f6044820152607760f81b606482015260840161091f565b6000610ae483836040518060400160405280601a81526020017f536166654d6174683a206469766973696f6e206279207a65726f0000000000008152506120e6565b60008061196a8385612756565b905083811015610ae45760405162461bcd60e51b815260206004820152601b60248201527f536166654d6174683a206164646974696f6e206f766572666c6f770000000000604482015260640161091f565b6000806119c883610c3f565b9050611a308160405180604001604052806014815260200173496e73756666696369656e742042616c616e636560601b81525060066000896001600160a01b03166001600160a01b031681526020019081526020016000205461151e9092919063ffffffff16565b6001600160a01b038087166000908152600660205260408082209390935590861681522054611a5f908261195d565b6001600160a01b0380861660008181526006602052604090819020939093559151908716907fddf252ad1be2c89b69c2b068fc378daa952ba7f163c4a11628f55a4df523b3ef90611ab39087815260200190565b60405180910390a3506001949350505050565b601f546000906001600160a01b03163314801590611ae7575060235460ff16155b8015611afc5750601f54600160a81b900460ff165b8015610b175750602254611b0f30610d65565b1015905090565b6023805460ff19166001179055601c54601d54600091611b3591610a15565b611b4157601054611b44565b60005b90506000611b5f60145460175461185790919063ffffffff16565b90506000611b816002610b3984610b398760225461189990919063ffffffff16565b90506000611b9a8260225461185790919063ffffffff16565b60408051600280825260608201835292935060009290916020830190803683370190505090503081600081518110611bd457611bd4612740565b60200260200101906001600160a01b031690816001600160a01b03168152505073bb4cdb9cbd36b01bd1cbaebf2de08d9173bc095c81600181518110611c1c57611c1c612740565b6001600160a01b039283166020918202929092010152601e5460405163791ac94760e01b81524792919091169063791ac94790611c669086906000908790309042906004016127cb565b600060405180830381600087803b158015611c8057600080fd5b505af1158015611c94573d6000803e3d6000fd5b505050506000611cad824761185790919063ffffffff16565b90506000611cc6611cbf89600261191b565b8890611857565b90506000611ce86002610b3984610b396010548861189990919063ffffffff16565b90506000611d0583610b396013548761189990919063ffffffff16565b90506000611d2284610b396011548861189990919063ffffffff16565b90506000611d3f85610b396012548961189990919063ffffffff16565b6019546040519192506000916001600160a01b039091169061753090869084818181858888f193505050503d8060008114611d96576040519150601f19603f3d011682016040523d82523d6000602084013e611d9b565b606091505b5050601a546040519192506001600160a01b0316906175309085906000818181858888f193505050503d8060008114611df0576040519150601f19603f3d011682016040523d82523d6000602084013e611df5565b606091505b5050601b546040519192506001600160a01b0316906175309084906000818181858888f193505050503d8060008114611e4a576040519150601f19603f3d011682016040523d82523d6000602084013e611e4f565b606091505b50909150508a15611f2c57601e5460185460405163f305d71960e01b8152306004820152602481018e905260006044820181905260648201526001600160a01b0391821660848201524260a482015291169063f305d71990879060c40160606040518083038185885af1158015611eca573d6000803e3d6000fd5b50505050506040513d601f19601f82011682018060405250810190611eef919061283c565b505060408051878152602081018e90527f424db2872186fa7e7afa7a5e902ed3b49a2ef19c2f5431e672462495dd6b450692500160405180910390a15b601f54600160b01b900460ff1615611f595760205460225414611f5157602054611f5d565b602154611f5d565b6022545b60225550506023805460ff191690555050505050505050505050565b600080600186151514611fa257601554601754611f9d9190610b39905b8690611899565b611fb6565b601554601654611fb69190610b3990611f96565b90506000600187151514611fe457611fdf601754610b396014548561189990919063ffffffff16565b611fff565b611fff601654610b39600f548561189990919063ffffffff16565b60075490915061200f9082611857565b600755600061201e8383611857565b3060009081526006602052604090205490915061203b908261195d565b306000818152600660205260409020919091556001600160a01b0388167fddf252ad1be2c89b69c2b068fc378daa952ba7f163c4a11628f55a4df523b3ef61208284610b1c565b60405190815260200160405180910390a36007546040805184815260208101929092527fc3b3cc73ac1faef58c428c22be6cb344acfd92a699c8cd758c753af27071b5ac910160405180910390a16120da8584611857565b98975050505050505050565b600081836121075760405162461bcd60e51b815260040161091f9190612114565b50600061154f84866125f8565b600060208083528351808285015260005b8181101561214157858101830151858201604001528201612125565b506000604082860101526040601f19601f8301168501019250505092915050565b60006020828403121561217457600080fd5b5035919050565b80356001600160a01b038116811461219257600080fd5b919050565b600080604083850312156121aa57600080fd5b6121b38361217b565b946020939093013593505050565b6000602082840312156121d357600080fd5b610ae48261217b565b600080604083850312156121ef57600080fd5b50508035926020909101359150565b60008060006060848603121561221357600080fd5b61221c8461217b565b925061222a6020850161217b565b9150604084013590509250925092565b8015158114610bc357600080fd5b60006020828403121561225a57600080fd5b8135610ae48161223a565b6000806000806080858703121561227b57600080fd5b6122848561217b565b93506122926020860161217b565b92506122a06040860161217b565b91506122ae6060860161217b565b905092959194509250565b634e487b7160e01b600052604160045260246000fd5b6000602082840312156122e157600080fd5b813567ffffffffffffffff808211156122f957600080fd5b818401915084601f83011261230d57600080fd5b81358181111561231f5761231f6122b9565b604051601f8201601f19908116603f01168101908382118183101715612347576123476122b9565b8160405282815287602084870101111561236057600080fd5b826020860160208301376000928101602001929092525095945050505050565b6000806000806080858703121561239657600080fd5b84356123a18161223a565b9350602085013592506040850135915060608501356123bf8161223a565b939692955090935050565b600080604083850312156123dd57600080fd5b6123e68361217b565b915060208301356123f68161223a565b809150509250929050565b60008060008060008060008060008060006101608c8e03121561242357600080fd5b505089359b60208b01359b5060408b01359a60608101359a506080810135995060a0810135985060c0810135975060e0810135965061010081013595506101208101359450610140013592509050565b60008083601f84011261248557600080fd5b50813567ffffffffffffffff81111561249d57600080fd5b6020830191508360208260051b85010111156124b857600080fd5b9250929050565b6000806000806000606086880312156124d757600080fd5b6124e08661217b565b9450602086013567ffffffffffffffff808211156124fd57600080fd5b61250989838a01612473565b9096509450604088013591508082111561252257600080fd5b5061252f88828901612473565b969995985093965092949392505050565b6000806040838503121561255357600080fd5b61255c8361217b565b915061256a6020840161217b565b90509250929050565b600181811c9082168061258757607f821691505b6020821081036125a757634e487b7160e01b600052602260045260246000fd5b50919050565b6020808252818101527f4f776e61626c653a2063616c6c6572206973206e6f7420746865206f776e6572604082015260600190565b634e487b7160e01b600052601160045260246000fd5b60008261261557634e487b7160e01b600052601260045260246000fd5b500490565b8082028115828204841417610a0f57610a0f6125e2565b601f82111561267b57600081815260208120601f850160051c810160208610156126585750805b601f850160051c820191505b8181101561267757828155600101612664565b5050505b505050565b815167ffffffffffffffff81111561269a5761269a6122b9565b6126ae816126a88454612573565b84612631565b602080601f8311600181146126e357600084156126cb5750858301515b600019600386901b1c1916600185901b178555612677565b600085815260208120601f198616915b82811015612712578886015182559484019460019091019084016126f3565b50858210156127305787850151600019600388901b60f8161c191681555b5050505050600190811b01905550565b634e487b7160e01b600052603260045260246000fd5b80820180821115610a0f57610a0f6125e2565b60006001820161277b5761277b6125e2565b5060010190565b60006020828403121561279457600080fd5b5051919050565b6000602082840312156127ad57600080fd5b8151610ae48161223a565b81810381811115610a0f57610a0f6125e2565b600060a082018783526020878185015260a0604085015281875180845260c086019150828901935060005b8181101561281b5784516001600160a01b0316835293830193918301916001016127f6565b50506001600160a01b03969096166060850152505050608001529392505050565b60008060006060848603121561285157600080fd5b835192506020840151915060408401519050925092509256fea26469706673582212206e674860076f41b7c8af4e7cc9d9782d7a38b9d63f4d89b386056bb5e8a55a0064736f6c63430008110033","linkReferences":{}},"methodIdentifiers":{"_maxTxAmount()":"7d1db4a5","_maxWalletSize()":"8f9a55c0","_rOwned(address)":"0cfc15f9","_totalProportion()":"17800287","allowance(address,address)":"dd62ed3e","approve(address,uint256)":"095ea7b3","approveMax(address)":"571ac8b0","balanceOf(address)":"70a08231","changeFees(uint256,uint256,uint256,uint256,uint256,uint256,uint256,uint256,uint256,uint256,uint256)":"878a9a61","changeName(string)":"5353a2d8","changeSymbol(string)":"a3895fff","claimingFees()":"b0f7ec38","clearForeignToken(address,uint256)":"f0a9e365","clearStuckBalance()":"364333f4","decimals()":"313ce567","enableTrading()":"8a8c523c","getCirculatingSupply()":"2b112e49","getLiquidityBacking(uint256)":"d51ed1c8","getOwner()":"893d20e8","getTotalFeeBuy(bool)":"832790fe","getTotalFeeSell(bool)":"2d44c931","isOverLiquified(uint256,uint256)":"1161ae39","multiAirdrop(address,address[],uint256[])":"b78e7edb","name()":"06fdde03","owner()":"8da5cb5b","pair()":"a8aa1b31","renounceOwnership()":"715018a6","router()":"f887ea40","setFeeReceivers(address,address,address,address)":"3c8e556d","setIsFeeExempt(address,bool)":"658d4b7f","setIsTxLimitExempt(address,bool)":"f84ba65d","setMaxTxPercent_base1000(uint256)":"bd9ab537","setMaxWalletPercent_base1000(uint256)":"09302dc6","setSwapBackSettings(bool,uint256,uint256,bool)":"6308fb98","swapThreshold()":"0445b667","symbol()":"95d89b41","tokenFromReflection(uint256)":"2d838119","tokensToProportion(uint256)":"45ce5365","totalSupply()":"18160ddd","tradingOpen()":"ffb54a99","transfer(address,uint256)":"a9059cbb","transferFrom(address,address,uint256)":"23b872dd","transferOwnership(address)":"f2fde38b","viewFeesBuy()":"613f930f","viewFeesSell()":"b93bdb5f"},"storageLayout":{"storage":[{"astId":309,"contract":"src/Contract.sol:PepitoInu","label":"_owner","offset":0,"slot":"0","type":"t_address"},{"astId":432,"contract":"src/Contract.sol:PepitoInu","label":"_name","offset":0,"slot":"1","type":"t_string_storage"},{"astId":435,"contract":"src/Contract.sol:PepitoInu","label":"_symbol","offset":0,"slot":"2","type":"t_string_storage"},{"astId":449,"contract":"src/Contract.sol:PepitoInu","label":"_totalSupply","offset":0,"slot":"3","type":"t_uint256"},{"astId":457,"contract":"src/Contract.sol:PepitoInu","label":"_maxTxAmount","offset":0,"slot":"4","type":"t_uint256"},{"astId":465,"contract":"src/Contract.sol:PepitoInu","label":"_maxWalletSize","offset":0,"slot":"5","type":"t_uint256"},{"astId":469,"contract":"src/Contract.sol:PepitoInu","label":"_rOwned","offset":0,"slot":"6","type":"t_mapping(t_address,t_uint256)"},{"astId":472,"contract":"src/Contract.sol:PepitoInu","label":"_totalProportion","offset":0,"slot":"7","type":"t_uint256"},{"astId":478,"contract":"src/Contract.sol:PepitoInu","label":"_allowances","offset":0,"slot":"8","type":"t_mapping(t_address,t_mapping(t_address,t_uint256))"},{"astId":482,"contract":"src/Contract.sol:PepitoInu","label":"isFeeExempt","offset":0,"slot":"9","type":"t_mapping(t_address,t_bool)"},{"astId":486,"contract":"src/Contract.sol:PepitoInu","label":"isTxLimitExempt","offset":0,"slot":"10","type":"t_mapping(t_address,t_bool)"},{"astId":489,"contract":"src/Contract.sol:PepitoInu","label":"liquidityFeeBuy","offset":0,"slot":"11","type":"t_uint256"},{"astId":492,"contract":"src/Contract.sol:PepitoInu","label":"teamFeeBuy","offset":0,"slot":"12","type":"t_uint256"},{"astId":495,"contract":"src/Contract.sol:PepitoInu","label":"devFeeBuy","offset":0,"slot":"13","type":"t_uint256"},{"astId":498,"contract":"src/Contract.sol:PepitoInu","label":"marketingFeeBuy","offset":0,"slot":"14","type":"t_uint256"},{"astId":501,"contract":"src/Contract.sol:PepitoInu","label":"reflectionFeeBuy","offset":0,"slot":"15","type":"t_uint256"},{"astId":504,"contract":"src/Contract.sol:PepitoInu","label":"liquidityFeeSell","offset":0,"slot":"16","type":"t_uint256"},{"astId":507,"contract":"src/Contract.sol:PepitoInu","label":"teamFeeSell","offset":0,"slot":"17","type":"t_uint256"},{"astId":510,"contract":"src/Contract.sol:PepitoInu","label":"devFeeSell","offset":0,"slot":"18","type":"t_uint256"},{"astId":513,"contract":"src/Contract.sol:PepitoInu","label":"marketingFeeSell","offset":0,"slot":"19","type":"t_uint256"},{"astId":516,"contract":"src/Contract.sol:PepitoInu","label":"reflectionFeeSell","offset":0,"slot":"20","type":"t_uint256"},{"astId":519,"contract":"src/Contract.sol:PepitoInu","label":"feeDenominator","offset":0,"slot":"21","type":"t_uint256"},{"astId":530,"contract":"src/Contract.sol:PepitoInu","label":"totalFeeBuy","offset":0,"slot":"22","type":"t_uint256"},{"astId":541,"contract":"src/Contract.sol:PepitoInu","label":"totalFeeSell","offset":0,"slot":"23","type":"t_uint256"},{"astId":543,"contract":"src/Contract.sol:PepitoInu","label":"autoLiquidityReceiver","offset":0,"slot":"24","type":"t_address"},{"astId":545,"contract":"src/Contract.sol:PepitoInu","label":"marketingFeeReceiver","offset":0,"slot":"25","type":"t_address"},{"astId":547,"contract":"src/Contract.sol:PepitoInu","label":"teamFeeReceiver","offset":0,"slot":"26","type":"t_address"},{"astId":549,"contract":"src/Contract.sol:PepitoInu","label":"devFeeReceiver","offset":0,"slot":"27","type":"t_address"},{"astId":552,"contract":"src/Contract.sol:PepitoInu","label":"targetLiquidity","offset":0,"slot":"28","type":"t_uint256"},{"astId":555,"contract":"src/Contract.sol:PepitoInu","label":"targetLiquidityDenominator","offset":0,"slot":"29","type":"t_uint256"},{"astId":558,"contract":"src/Contract.sol:PepitoInu","label":"router","offset":0,"slot":"30","type":"t_contract(IDEXRouter)305"},{"astId":560,"contract":"src/Contract.sol:PepitoInu","label":"pair","offset":0,"slot":"31","type":"t_address"},{"astId":563,"contract":"src/Contract.sol:PepitoInu","label":"tradingOpen","offset":20,"slot":"31","type":"t_bool"},{"astId":566,"contract":"src/Contract.sol:PepitoInu","label":"claimingFees","offset":21,"slot":"31","type":"t_bool"},{"astId":569,"contract":"src/Contract.sol:PepitoInu","label":"alternateSwaps","offset":22,"slot":"31","type":"t_bool"},{"astId":576,"contract":"src/Contract.sol:PepitoInu","label":"smallSwapThreshold","offset":0,"slot":"32","type":"t_uint256"},{"astId":583,"contract":"src/Contract.sol:PepitoInu","label":"largeSwapThreshold","offset":0,"slot":"33","type":"t_uint256"},{"astId":586,"contract":"src/Contract.sol:PepitoInu","label":"swapThreshold","offset":0,"slot":"34","type":"t_uint256"},{"astId":588,"contract":"src/Contract.sol:PepitoInu","label":"inSwap","offset":0,"slot":"35","type":"t_bool"}],"types":{"t_address":{"encoding":"inplace","label":"address","numberOfBytes":"20"},"t_bool":{"encoding":"inplace","label":"bool","numberOfBytes":"1"},"t_contract(IDEXRouter)305":{"encoding":"inplace","label":"contract IDEXRouter","numberOfBytes":"20"},"t_mapping(t_address,t_bool)":{"encoding":"mapping","key":"t_address","label":"mapping(address => bool)","numberOfBytes":"32","value":"t_bool"},"t_mapping(t_address,t_mapping(t_address,t_uint256))":{"encoding":"mapping","key":"t_address","label":"mapping(address => mapping(address => uint256))","numberOfBytes":"32","value":"t_mapping(t_address,t_uint256)"},"t_mapping(t_address,t_uint256)":{"encoding":"mapping","key":"t_address","label":"mapping(address => uint256)","numberOfBytes":"32","value":"t_uint256"},"t_string_storage":{"encoding":"bytes","label":"string","numberOfBytes":"32"},"t_uint256":{"encoding":"inplace","label":"uint256","numberOfBytes":"32"}}},"id":0}